:0300000002087D76
:0C087D00787FE4F6D8FD7581070208645E
:10086400E4F580F590F5A075B00475A881D288D21E
:09087400A0C2A1D2A2C2A380F629
:03000300020800F0
:10080000C0E0C0F0C083C082C0D075D000C000C0BE
:1008100001C002C003C004C005C006C007B2A0B238
:10082000A1B2A2B2A3120843D007D006D005D004CB
:10083000D003D002D001D000D0D0D082D083D0F06D
:03084000D0E032D3
:10084300758901E4FFFE758CF8758ACCD28C308DE6
:10085300FDC28CC28D0FBF00010EEF64C84E70E65F
:010863002272
:00000001FF
